:020000040000FA
:100000000C945E000C9486000C9486000C94860080
:100010000C9486000C9486000C9486000C94860048
:100020000C9486000C9486000C9486000C94860038
:100030000C9486000C9486000C9486000C94860028
:100040000C94FB030C9486000C94C9030C94A3033A
:100050000C9486000C9486000C9486000C94860008
:100060000C9486000C9486000000000024002700F9
:100070002A0000000000250028002B0004040404CE
:100080000404040402020202020203030303030342
:10009000010204081020408001020408102001021F
:1000A00004081020000000080002010000030407FB
:1000B00000000000000000009304640611241FBE2D
:1000C000CFEFD8E0DEBFCDBF11E0A0E0B1E0E6E7C2
:1000D000FFE002C005900D92A831B107D9F721E0E9
:1000E000A8E1B1E001C01D92AE3EB207E1F710E019
:1000F000CDE5D0E004C02197FE010E948306CC35F7
:10010000D107C9F70E94CB040C94AE070C940000F1
:1001100090E0FC01EC55FF4F2491FC01E057FF4FAC
:100120003491FC01E458FF4FE491EE23B9F022230F
:1001300039F02330F1F098F4213009F1223019F12F
:10014000F0E0EE0FFF1FEE58FF4FA591B4918FB76F
:10015000F894EC9130953E233C938FBF089527305F
:10016000A9F02830C9F0243059F7809180008F7DA4
:1001700003C0809180008F7780938000E1CF84B5A9
:100180008F7784BDDDCF84B58F7DFBCF8091B000AC
:100190008F778093B000D4CF8091B0008F7DF9CF5E
:1001A000AF92BF92CF92DF92EF92FF920F931F9385
:1001B000CF93DF936C017B018B01040F151FEB01C3
:1001C0005E01AE18BF08C017D10759F06991D6017A
:1001D000ED91FC910190F081E02DC6010995892BEC
:1001E00079F7C501DF91CF911F910F91FF90EF90AB
:1001F000DF90CF90BF90AF900895FC01538D448D58
:10020000252F30E0842F90E0821B930B541710F0C1
:10021000CF96089501970895FC01918D828D9817CE
:1002200061F0A28DAE0FBF2FB11D5D968C91928DA6
:100230009F5F9F73928F90E008958FEF9FEF0895D7
:10024000FC01918D828D981731F0828DE80FF11DA0
:10025000858D90E008958FEF9FEF0895FC01918DBB
:10026000228D892F90E0805C9F4F821B91098F73B4
:100270009927089581E291E00E942E0121E0892BC7
:1002800009F420E0822F089580E090E0892B29F086
:100290000E943A0181110C9400000895FC01A48D84
:1002A000A80FB92FB11DA35ABF4F2C91848D90E098
:1002B00001968F739927848FA689B7892C93A0897B
:1002C000B1898C91837080648C93938D848D981305
:1002D00006C00288F389E02D80818F7D8083089598
:1002E000EF92FF920F931F93CF93DF93EC0181E086
:1002F000888F9B8D8C8D98131AC0E889F98980812D
:1003000085FF15C09FB7F894EE89FF896083E8895F
:10031000F98980818370806480839FBF81E090E051
:10032000DF91CF911F910F91FF90EF900895F62EDE
:100330000B8D10E00F5F1F4F0F731127E02E8C8D78
:100340008E110CC00FB607FCFACFE889F9898081BD
:1003500085FFF5CFCE010E944E01F1CFEB8DEC0F62
:10036000FD2FF11DE35AFF4FF0829FB7F8940B8FDA
:10037000EA89FB8980818062CFCFCF93DF93EC0144
:10038000888D8823B9F0AA89BB89E889F9898C917D
:1003900085FD03C0808186FD0DC00FB607FCF7CF39
:1003A0008C9185FFF2CF808185FFEDCFCE010E9439
:1003B0004E01E9CFDF91CF910895CF93DF9390E085
:1003C000FC01E057FF4F249184589F4FFC0184911A
:1003D0008823D1F090E0880F991FFC01E859FF4F66
:1003E000A591B491FC01EE58FF4FC591D4916111D4
:1003F0000EC09FB7F8948C91E22FE0958E238C93DA
:100400002881E223E8839FBFDF91CF9108958FB7C2
:10041000F894EC91E22BEC938FBFF6CF8E50806472
:1004200080937C0080917A00806480937A00809130
:100430007A0086FDFCCF8091780090917900089534
:100440003FB7F89480911D0190911E01A0911F016A
:10045000B091200126B5A89B05C02F3F19F0019649
:10046000A11DB11D3FBFBA2FA92F982F8827BC010E
:10047000CD01620F711D811D911D42E0660F771F36
:10048000881F991F4A95D1F708958F929F92AF9236
:10049000BF92CF92DF92EF92FF926B017C010E949C
:1004A00020024B015C01C114D104E104F104B9F054
:1004B0000E942002681979098A099B09683E7340E5
:1004C0008105910580F321E0C21AD108E108F10805
:1004D00088EE880E83E0981EA11CB11CE4CFFF902B
:1004E000EF90DF90CF90BF90AF909F908F90089546
:1004F000FC01828193816817790758F59A01442796
:1005000055278085882349F090E0829FD001839F02
:10051000B00D929FB00D11242B2FA68541855285D9
:100520008385A81317C0CB01880F991F680F791F07
:10053000640F751FA385A60FB72FB11D2C93A4853B
:10054000A60FB72FB11D1C928585680F711DFB0189
:1005500010820895660F771F660F771F640F751F4F
:10056000A60FB72FB11D1C92E5CFCF92DF92EF926D
:10057000FF920F931F93CF93DF93CDB7DEB72997E9
:100580000FB6F894DEBF0FBECDBF8C01DC0119960B
:100590008D919C91892B09F47AC0F801C784D08889
:1005A000E188F2880E9420026C157D058E059F056A
:1005B00048F40E942002D8011F966D937D938D937D
:1005C0009C9352970E942002F801C784D088E1884A
:1005D000F2886C197D098E099F096C327140810582
:1005E0009105D8F2F894D80114968D919C911597A5
:1005F0009A8389831996ED91FC917F01BFEFEB1AE5
:10060000FB0A80818987F80190810388F489E02DB5
:10061000D80155968C91992309F448C09081982B64
:1006200098879081809589238F838F818C8388E040
:100630008B8358856F8149853B812C8189819A8183
:10064000D701508347FD252F3A952083262F39F077
:10065000441F00C000006083000000C0F2CF38E0FB
:100660004D9160830000019761F7D8015496FC9387
:10067000EE93539749873B832C839A83898378949D
:100680000E942002F8016787708B818B928B2996DC
:100690000FB6F894DEBF0FBECDBFDF91CF911F9193
:1006A0000F91FF90EF90DF90CF9008959081982B5D
:1006B00098879081809589238F838F818E8388E0AE
:1006C0008D8358856F8149853D812E8189819A81ED
:1006D000D701508347FD252F00C000C0208300C0F4
:1006E00000C000C000C000C060830000262F3A9503
:1006F00041F0441F000000C000C000C000C000C0A6
:10070000E8CF38E04D9100C0608300C0019709F741
:10071000D8015496FC93EE93539749873D832E83DB
:10072000ACCFCF93DF93EC018E819F8197FD06C004
:1007300061E00E94DD018E810E94880081E0898352
:10074000DF91CF9108951F920F920FB60F9211244F
:100750002F933F934F935F936F937F938F939F93C9
:10076000AF93BF93EF93FF9381E291E00E944E011C
:10077000FF91EF91BF91AF919F918F917F916F9179
:100780005F914F913F912F910F900FBE0F901F904F
:1007900018951F920F920FB60F9211242F938F93DB
:1007A0009F93EF93FF93E0913101F09132018081AB
:1007B000E0913701F091380182FD1BC0908180915A
:1007C0003A018F5F8F7320913B01821741F0E091D6
:1007D0003A01F0E0EF5DFE4F958F80933A01FF9173
:1007E000EF919F918F912F910F900FBE0F901F90BF
:1007F00018958081F4CF1F920F920FB60F9211249B
:100800002F933F938F939F93AF93BF938091190141
:1008100090911A01A0911B01B0911C013091180117
:1008200023E0230F2D3758F50196A11DB11D20930C
:1008300018018093190190931A01A0931B01B093A2
:100840001C0180911D0190911E01A0911F01B0918A
:1008500020010196A11DB11D80931D0190931E01E1
:10086000A0931F01B0932001BF91AF919F918F91F1
:100870003F912F910F900FBE0F901F90189526E873
:10088000230F0296A11DB11DD2CF0F931F93CF93BB
:10089000DF93EC018B01198218861F86188A198A4A
:1008A0001A8A81E08E878B871C8692E09D878883D9
:1008B0008AE590E09D838C830E9489069A878987C8
:1008C000009761F12AE5FC0111922A95E9F78EE182
:1008D00090E09B838A831F830E838981882339F06C
:1008E00061E0802F0E94DD01802F0E948800F801C6
:1008F000E458FF4FE491F0E0EE0FFF1FEE58FF4F7A
:10090000859194919C8B8B8BF801E057FF4FE4917C
:10091000ED8BDF91CF911F910F9108951D821C8265
:100920001B821A82D8CFE1E2F1E01382128288EEB4
:1009300093E0A0E0B0E084839583A683B7838AE048
:1009400091E09183808385EC90E09587848784ECA7
:1009500090E09787868780EC90E0918B808B81EC8C
:1009600090E0938B828B82EC90E0958B848B86EC6D
:1009700090E0978B868B118E128E138E148E68E00A
:1009800070E084ED91E00E9445046AE070E08EEB37
:1009900091E00C944504789484B5826084BD84B55C
:1009A000816084BD85B5826085BD85B5816085BD6A
:1009B00080916E00816080936E0010928100809122
:1009C00081008260809381008091810081608093AA
:1009D0008100809180008160809380008091B100CF
:1009E00084608093B1008091B00081608093B000FA
:1009F00080917A00846080937A0080917A0082608E
:100A000080937A0080917A00816080937A0080914F
:100A10007A00806880937A001092C10084ED91E0A2
:100A20000E9491038EEB91E00E949103E0913101CD
:100A3000F091320182E08083E0912D01F0912E014E
:100A40001082E0912F01F09130018FEC80831092A1
:100A50003901E0913501F091360186E08083E09123
:100A60003301F0913401808180618083E091330112
:100A7000F0913401808188608083E0913301F091AE
:100A80003401808180688083E0913301F0913401EA
:100A900080818F7D808380E0E82E80E0F82E8FE0DB
:100AA0000E940E028C0181E10E940E026C0164E63C
:100AB00070E080E090E00E94450281E291E00E94B7
:100AC0002E01EC01892B09F4A3C081E291E00E9480
:100AD0000C01D0E0C0E0813309F03FC004361105BD
:100AE0000CF46DC020E030E04FEF50E0BE0184ED2B
:100AF00091E00E94780284ED91E00E94B5026AE0E4
:100B000070E080E090E00E94450220E030E0A90122
:100B1000BE018EEB91E00E9478028EEB91E00E9484
:100B2000B5026AE070E080E090E00E944502219604
:100B3000CE31D105B9F668E57BE180E090E00E9416
:100B40004502E114F10409F4AACF0E943A01882376
:100B500009F4A5CF0E940000A2CF043611057CF154
:100B600084E6C816D1045CF120E030E04FEF50E09D
:100B7000BE0184ED91E00E94780284ED91E00E9434
:100B8000B5026AE070E080E090E00E94450220E05B
:100B900030E04FEF50E0BE018EEB91E00E94780212
:100BA0008EEB91E00E94B5026AE070E080E090E098
:100BB0000E9445022196CE31D105B1F6BCCF20E08E
:100BC00030E0A901BE0184ED91E00E94780284ED3D
:100BD00091E00E94B5026AE070E080E090E00E943F
:100BE000450220E030E0A901BE018EEB91E00E94B9
:100BF00078028EEB91E00E94B5026AE070E080E03E
:100C000090E00E9445022196CE31D105C1F699CFE0
:100C1000043611054CF520E030E0A901BE0184ED59
:100C200091E00E94780284ED91E00E94B5026AE0B2
:100C300070E080E090E00E94450220E030E0A901F1
:100C4000BE018EEB91E00E9478028EEB91E00E9453
:100C5000B5026AE070E080E090E00E9445022196D3
:100C6000CE31D105C1F66DCF84E6C816D1040CF49F
:100C700068CF20E030E04FEF50E0BE0184ED91E01E
:100C80000E94780284ED91E00E94B5026AE070E073
:100C900080E090E00E94450220E030E04FEF50E01D
:100CA000BE018EEB91E00E9478028EEB91E00E94F3
:100CB000B5026AE070E080E090E00E944502219673
:100CC000CE31D105B1F637CF8091C7019091C801DF
:100CD0000E9425078091C4019091C50197FD03C032
:100CE00060E00E94DD018091DD019091DE010E94B3
:100CF00025078091DA019091DB0197FD03C060E048
:100D00000C94DD010895EE0FFF1F0590F491E02D86
:100D100009940F931F93CF93DF938230910510F4C2
:100D200082E090E0E091EC01F091ED0130E020E014
:100D3000B0E0A0E0309799F42115310509F44AC0DC
:100D4000281B390B24303105D8F58A819B81611528
:100D5000710589F1FB0193838283FE0111C04081FB
:100D600051810281138148175907E0F0481759074C
:100D700099F4109761F012960C93129713961C93A6
:100D80003296CF01DF91CF911F910F91089500937B
:100D9000EC011093ED01F4CF2115310551F042170C
:100DA000530738F0A901DB019A01BD01DF01F80109
:100DB000C1CFEF01F9CF9093ED018093EC01CDCF3E
:100DC000FE01E20FF31F8193919322503109398381
:100DD0002883D7CF2091EA013091EB01232B41F4F6
:100DE00020910201309103013093EB012093EA013D
:100DF00020910001309101012115310541F42DB7F9
:100E00003EB74091040150910501241B350BE09140
:100E1000EA01F091EB01E217F307A0F42E1B3F0B60
:100E20002817390778F0AC014E5F5F4F241735075C
:100E300048F04E0F5F1F5093EB014093EA018193FE
:100E400091939FCFF0E0E0E09CCFCF93DF930097AA
:100E5000E9F0FC01329713821282A091EC01B0916B
:100E6000ED01ED0130E020E01097A1F42081318107
:100E7000820F931F2091EA013091EB012817390767
:100E800009F061C0F093EB01E093EA01DF91CF91AB
:100E90000895EA01CE17DF07E8F54A815B819E01DC
:100EA00041155105B1F7E901FB83EA834991599155
:100EB000C40FD51FEC17FD0761F480819181029664
:100EC000840F951FE90199838883828193819B8395
:100ED0008A83F0E0E0E012968D919C911397009741
:100EE000B9F52D913C911197CD010296820F931F78
:100EF0002091EA013091EB012817390739F6309734
:100F000051F51092ED011092EC01B093EB01A0931A
:100F1000EA01BCCFD383C28340815181840F951FE6
:100F2000C817D90761F44E5F5F4F88819981480FD8
:100F3000591F518340838A819B819383828321152A
:100F4000310509F0B0CFF093ED01E093EC019ECFB5
:100F5000FD01DC01C0CF13821282D7CF10E0CDE5B6
:100F6000D0E004C0FE010E9483062196CE35D10751
:100F7000C9F7F894FFCF0000EE01800000000000E8
:0E0F80007001D000FD00BD012E010C0120010A
:107E0000112484B714BE81FFF0D085E080938100F7
:107E100082E08093C00088E18093C10086E0809377
:107E2000C20080E18093C4008EE0C9D0259A86E02C
:107E300020E33CEF91E0309385002093840096BBD3
:107E4000B09BFECF1D9AA8958150A9F7CC24DD24C4
:107E500088248394B5E0AB2EA1E19A2EF3E0BF2EE7
:107E6000A2D0813461F49FD0082FAFD0023811F036
:107E7000013811F484E001C083E08DD089C08234E0
:107E800011F484E103C0853419F485E0A6D080C0E4
:107E9000853579F488D0E82EFF2485D0082F10E0AE
:107EA000102F00270E291F29000F111F8ED06801E7
:107EB0006FC0863521F484E090D080E0DECF843638
:107EC00009F040C070D06FD0082F6DD080E0C81688
:107ED00080E7D80618F4F601B7BEE895C0E0D1E017
:107EE00062D089930C17E1F7F0E0CF16F0E7DF06D8
:107EF00018F0F601B7BEE89568D007B600FCFDCFD4
:107F0000A601A0E0B1E02C9130E011968C91119780
:107F100090E0982F8827822B932B1296FA010C0160
:107F200087BEE89511244E5F5F4FF1E0A038BF0790
:107F300051F7F601A7BEE89507B600FCFDCF97BE46
:107F4000E89526C08437B1F42ED02DD0F82E2BD052
:107F50003CD0F601EF2C8F010F5F1F4F84911BD097
:107F6000EA94F801C1F70894C11CD11CFA94CF0C13
:107F7000D11C0EC0853739F428D08EE10CD085E9AC
:107F80000AD08FE07ACF813511F488E018D01DD067
:107F900080E101D065CF982F8091C00085FFFCCF94
:107FA0009093C60008958091C00087FFFCCF809118
:107FB000C00084FD01C0A8958091C6000895E0E648
:107FC000F0E098E1908380830895EDDF803219F02E
:107FD00088E0F5DFFFCF84E1DECF1F93182FE3DFCA
:107FE0001150E9F7F2DF1F91089580E0E8DFEE27F6
:047FF000FF270994CA
:027FFE00040479
:00000001FF
